{
  "_format": "hh-sol-artifact-1",
  "contractName": "LuxuryProductPassport",
  "sourceName": "contracts/LuxuryProductPassport.sol",
  "abi": [
    {
      "inputs": [],
      "stateMutability": "nonpayable",
      "type": "constructor"
    },
    {
      "anonymous": false,
      "inputs": [
        {
          "indexed": true,
          "internalType": "address",
          "name": "owner",
          "type": "address"
        },
        {
          "indexed": true,
          "internalType": "address",
          "name": "approved",
          "type": "address"
        },
        {
          "indexed": true,
          "internalType": "uint256",
          "name": "tokenId",
          "type": "uint256"
        }
      ],
      "name": "Approval",
      "type": "event"
    },
    {
      "anonymous": false,
      "inputs": [
        {
          "indexed": true,
          "internalType": "address",
          "name": "owner",
          "type": "address"
        },
        {
          "indexed": true,
          "internalType": "address",
          "name": "operator",
          "type": "address"
        },
        {
          "indexed": false,
          "internalType": "bool",
          "name": "approved",
          "type": "bool"
        }
      ],
      "name": "ApprovalForAll",
      "type": "event"
    },
    {
      "anonymous": false,
      "inputs": [
        {
          "indexed": false,
          "internalType": "uint256",
          "name": "_fromTokenId",
          "type": "uint256"
        },
        {
          "indexed": false,
          "internalType": "uint256",
          "name": "_toTokenId",
          "type": "uint256"
        }
      ],
      "name": "BatchMetadataUpdate",
      "type": "event"
    },
    {
      "anonymous": false,
      "inputs": [
        {
          "indexed": false,
          "internalType": "uint256",
          "name": "_tokenId",
          "type": "uint256"
        }
      ],
      "name": "MetadataUpdate",
      "type": "event"
    },
    {
      "anonymous": false,
      "inputs": [
        {
          "indexed": true,
          "internalType": "address",
          "name": "previousOwner",
          "type": "address"
        },
        {
          "indexed": true,
          "internalType": "address",
          "name": "newOwner",
          "type": "address"
        }
      ],
      "name": "OwnershipTransferred",
      "type": "event"
    },
    {
      "anonymous": false,
      "inputs": [
        {
          "indexed": true,
          "internalType": "uint256",
          "name": "tokenId",
          "type": "uint256"
        },
        {
          "indexed": false,
          "internalType": "string",
          "name": "eventType",
          "type": "string"
        },
        {
          "indexed": false,
          "internalType": "string",
          "name": "data",
          "type": "string"
        }
      ],
      "name": "ProductEvent",
      "type": "event"
    },
    {
      "anonymous": false,
      "inputs": [
        {
          "indexed": true,
          "internalType": "address",
          "name": "from",
          "type": "address"
        },
        {
          "indexed": true,
          "internalType": "address",
          "name": "to",
          "type": "address"
        },
        {
          "indexed": true,
          "internalType": "uint256",
          "name": "tokenId",
          "type": "uint256"
        }
      ],
      "name": "Transfer",
      "type": "event"
    },
    {
      "inputs": [
        {
          "internalType": "address",
          "name": "to",
          "type": "address"
        },
        {
          "internalType": "uint256",
          "name": "tokenId",
          "type": "uint256"
        }
      ],
      "name": "approve",
      "outputs": [],
      "stateMutability": "nonpayable",
      "type": "function"
    },
    {
      "inputs": [
        {
          "internalType": "address",
          "name": "owner",
          "type": "address"
        }
      ],
      "name": "balanceOf",
      "outputs": [
        {
          "internalType": "uint256",
          "name": "",
          "type": "uint256"
        }
      ],
      "stateMutability": "view",
      "type": "function"
    },
    {
      "inputs": [
        {
          "internalType": "uint256",
          "name": "tokenId",
          "type": "uint256"
        }
      ],
      "name": "getApproved",
      "outputs": [
        {
          "internalType": "address",
          "name": "",
          "type": "address"
        }
      ],
      "stateMutability": "view",
      "type": "function"
    },
    {
      "inputs": [
        {
          "internalType": "address",
          "name": "owner",
          "type": "address"
        },
        {
          "internalType": "address",
          "name": "operator",
          "type": "address"
        }
      ],
      "name": "isApprovedForAll",
      "outputs": [
        {
          "internalType": "bool",
          "name": "",
          "type": "bool"
        }
      ],
      "stateMutability": "view",
      "type": "function"
    },
    {
      "inputs": [
        {
          "internalType": "address",
          "name": "to",
          "type": "address"
        },
        {
          "internalType": "string",
          "name": "metadataURI",
          "type": "string"
        }
      ],
      "name": "mint",
      "outputs": [],
      "stateMutability": "nonpayable",
      "type": "function"
    },
    {
      "inputs": [],
      "name": "name",
      "outputs": [
        {
          "internalType": "string",
          "name": "",
          "type": "string"
        }
      ],
      "stateMutability": "view",
      "type": "function"
    },
    {
      "inputs": [],
      "name": "owner",
      "outputs": [
        {
          "internalType": "address",
          "name": "",
          "type": "address"
        }
      ],
      "stateMutability": "view",
      "type": "function"
    },
    {
      "inputs": [
        {
          "internalType": "uint256",
          "name": "tokenId",
          "type": "uint256"
        }
      ],
      "name": "ownerOf",
      "outputs": [
        {
          "internalType": "address",
          "name": "",
          "type": "address"
        }
      ],
      "stateMutability": "view",
      "type": "function"
    },
    {
      "inputs": [
        {
          "internalType": "uint256",
          "name": "tokenId",
          "type": "uint256"
        },
        {
          "internalType": "string",
          "name": "eventType",
          "type": "string"
        },
        {
          "internalType": "string",
          "name": "data",
          "type": "string"
        }
      ],
      "name": "recordEvent",
      "outputs": [],
      "stateMutability": "nonpayable",
      "type": "function"
    },
    {
      "inputs": [],
      "name": "renounceOwnership",
      "outputs": [],
      "stateMutability": "nonpayable",
      "type": "function"
    },
    {
      "inputs": [
        {
          "internalType": "address",
          "name": "from",
          "type": "address"
        },
        {
          "internalType": "address",
          "name": "to",
          "type": "address"
        },
        {
          "internalType": "uint256",
          "name": "tokenId",
          "type": "uint256"
        }
      ],
      "name": "safeTransferFrom",
      "outputs": [],
      "stateMutability": "nonpayable",
      "type": "function"
    },
    {
      "inputs": [
        {
          "internalType": "address",
          "name": "from",
          "type": "address"
        },
        {
          "internalType": "address",
          "name": "to",
          "type": "address"
        },
        {
          "internalType": "uint256",
          "name": "tokenId",
          "type": "uint256"
        },
        {
          "internalType": "bytes",
          "name": "data",
          "type": "bytes"
        }
      ],
      "name": "safeTransferFrom",
      "outputs": [],
      "stateMutability": "nonpayable",
      "type": "function"
    },
    {
      "inputs": [
        {
          "internalType": "address",
          "name": "operator",
          "type": "address"
        },
        {
          "internalType": "bool",
          "name": "approved",
          "type": "bool"
        }
      ],
      "name": "setApprovalForAll",
      "outputs": [],
      "stateMutability": "nonpayable",
      "type": "function"
    },
    {
      "inputs": [
        {
          "internalType": "bytes4",
          "name": "interfaceId",
          "type": "bytes4"
        }
      ],
      "name": "supportsInterface",
      "outputs": [
        {
          "internalType": "bool",
          "name": "",
          "type": "bool"
        }
      ],
      "stateMutability": "view",
      "type": "function"
    },
    {
      "inputs": [],
      "name": "symbol",
      "outputs": [
        {
          "internalType": "string",
          "name": "",
          "type": "string"
        }
      ],
      "stateMutability": "view",
      "type": "function"
    },
    {
      "inputs": [
        {
          "internalType": "uint256",
          "name": "tokenId",
          "type": "uint256"
        }
      ],
      "name": "tokenURI",
      "outputs": [
        {
          "internalType": "string",
          "name": "",
          "type": "string"
        }
      ],
      "stateMutability": "view",
      "type": "function"
    },
    {
      "inputs": [
        {
          "internalType": "address",
          "name": "from",
          "type": "address"
        },
        {
          "internalType": "address",
          "name": "to",
          "type": "address"
        },
        {
          "internalType": "uint256",
          "name": "tokenId",
          "type": "uint256"
        }
      ],
      "name": "transferFrom",
      "outputs": [],
      "stateMutability": "nonpayable",
      "type": "function"
    },
    {
      "inputs": [
        {
          "internalType": "address",
          "name": "newOwner",
          "type": "address"
        }
      ],
      "name": "transferOwnership",
      "outputs": [],
      "stateMutability": "nonpayable",
      "type": "function"
    }
  ],
  "bytecode": "0x60806040523480156200001157600080fd5b506040518060400160405280601581526020017f4c757875727950726f6475637450617373706f727400000000000000000000008152506040518060400160405280600381526020017f4c5050000000000000000000000000000000000000000000000000000000000081525081600090816200008f919062000412565b508060019081620000a1919062000412565b505050620000c4620000b8620000ca60201b60201c565b620000d260201b60201c565b620004f9565b600033905090565b6000600760009054906101000a900473ffffffffffffffffffffffffffffffffffffffff16905081600760006101000a81548173ffffffffffffffffffffffffffffffffffffffff021916908373ffffffffffffffffffffffffffffffffffffffff1602179055508173ffffffffffffffffffffffffffffffffffffffff168173ffffffffffffffffffffffffffffffffffffffff167f8be0079c531659141344cd1fd0a4f28419497f9722a3daafe3b4186f6b6457e060405160405180910390a35050565b600081519050919050565b7f4e487b7100000000000000000000000000000000000000000000000000000000600052604160045260246000fd5b7f4e487b7100000000000000000000000000000000000000000000000000000000600052602260045260246000fd5b600060028204905060018216806200021a57607f821691505b60208210810362000230576200022f620001d2565b5b50919050565b60008190508160005260206000209050919050565b60006020601f8301049050919050565b600082821b905092915050565b6000600883026200029a7fffffffffffffffffffffffffffffffffffffffffffffffffffffffffffffffff826200025b565b620002a686836200025b565b95508019841693508086168417925050509392505050565b6000819050919050565b6000819050919050565b6000620002f3620002ed620002e784620002be565b620002c8565b620002be565b9050919050565b6000819050919050565b6200030f83620002d2565b620003276200031e82620002fa565b84845462000268565b825550505050565b600090565b6200033e6200032f565b6200034b81848462000304565b505050565b5b8181101562000373576200036760008262000334565b60018101905062000351565b5050565b601f821115620003c2576200038c8162000236565b62000397846200024b565b81016020851015620003a7578190505b620003bf620003b6856200024b565b83018262000350565b50505b505050565b600082821c905092915050565b6000620003e760001984600802620003c7565b1980831691505092915050565b6000620004028383620003d4565b9150826002028217905092915050565b6200041d8262000198565b67ffffffffffffffff811115620004395762000438620001a3565b5b62000445825462000201565b6200045282828562000377565b600060209050601f8311600181146200048a576000841562000475578287015190505b620004818582620003f4565b865550620004f1565b601f1984166200049a8662000236565b60005b82811015620004c4578489015182556001820191506020850194506020810190506200049d565b86831015620004e45784890151620004e0601f891682620003d4565b8355505b6001600288020188555050505b505050505050565b61316f80620005096000396000f3fe608060405234801561001057600080fd5b50600436106101165760003560e01c80638da5cb5b116100a2578063b88d4fde11610071578063b88d4fde146102cb578063c87b56dd146102e7578063d0def52114610317578063e985e9c514610333578063f2fde38b1461036357610116565b80638da5cb5b1461025757806395d89b41146102755780639c79e78b14610293578063a22cb465146102af57610116565b806323b872dd116100e957806323b872dd146101b557806342842e0e146101d15780636352211e146101ed57806370a082311461021d578063715018a61461024d57610116565b806301ffc9a71461011b57806306fdde031461014b578063081812fc14610169578063095ea7b314610199575b600080fd5b61013560048036038101906101309190611dbb565b61037f565b6040516101429190611e03565b60405180910390f35b610153610391565b6040516101609190611eae565b60405180910390f35b610183600480360381019061017e9190611f06565b610423565b6040516101909190611f74565b60405180910390f35b6101b360048036038101906101ae9190611fbb565b610469565b005b6101cf60048036038101906101ca9190611ffb565b610580565b005b6101eb60048036038101906101e69190611ffb565b6105e0565b005b61020760048036038101906102029190611f06565b610600565b6040516102149190611f74565b60405180910390f35b6102376004803603810190610232919061204e565b610686565b604051610244919061208a565b60405180910390f35b61025561073d565b005b61025f610751565b60405161026c9190611f74565b60405180910390f35b61027d61077b565b60405161028a9190611eae565b60405180910390f35b6102ad60048036038101906102a891906121da565b61080d565b005b6102c960048036038101906102c49190612291565b6108ff565b005b6102e560048036038101906102e09190612372565b610915565b005b61030160048036038101906102fc9190611f06565b610977565b60405161030e9190611eae565b60405180910390f35b610331600480360381019061032c91906123f5565b610989565b005b61034d60048036038101906103489190612451565b6109c5565b60405161035a9190611e03565b60405180910390f35b61037d6004803603810190610378919061204e565b610a59565b005b600061038a82610adc565b9050919050565b6060600080546103a0906124c0565b80601f01602080910402602001604051908101604052809291908181526020018280546103cc906124c0565b80156104195780601f106103ee57610100808354040283529160200191610419565b820191906000526020600020905b8154815290600101906020018083116103fc57829003601f168201915b5050505050905090565b600061042e82610b3d565b6004600083815260200190815260200160002060009054906101000a900473ffffffffffffffffffffffffffffffffffffffff169050919050565b600061047482610600565b90508073ffffffffffffffffffffffffffffffffffffffff168373ffffffffffffffffffffffffffffffffffffffff16036104e4576040517f08c379a00000000000000000000000000000000000000000000000000000000081526004016104db90612563565b60405180910390fd5b8073ffffffffffffffffffffffffffffffffffffffff16610503610b88565b73ffffffffffffffffffffffffffffffffffffffff16148061053257506105318161052c610b88565b6109c5565b5b610571576040517f08c379a0000000000000000000000000000000000000000000000000000000008152600401610568906125f5565b60405180910390fd5b61057b8383610b90565b505050565b61059161058b610b88565b82610c49565b6105d0576040517f08c379a00000000000000000000000000000000000000000000000000000000081526004016105c790612687565b60405180910390fd5b6105db838383610cde565b505050565b6105fb83838360405180602001604052806000815250610915565b505050565b60008061060c83610fd7565b9050600073ffffffffffffffffffffffffffffffffffffffff168173ffffffffffffffffffffffffffffffffffffffff160361067d576040517f08c379a0000000000000000000000000000000000000000000000000000000008152600401610674906126f3565b60405180910390fd5b80915050919050565b60008073ffffffffffffffffffffffffffffffffffffffff168273ffffffffffffffffffffffffffffffffffffffff16036106f6576040517f08c379a00000000000000000000000000000000000000000000000000000000081526004016106ed90612785565b60405180910390fd5b600360008373ffffffffffffffffffffffffffffffffffffffff1673ffffffffffffffffffffffffffffffffffffffff168152602001908152602001600020549050919050565b610745611014565b61074f6000611092565b565b6000600760009054906101000a900473ffffffffffffffffffffffffffffffffffffffff16905090565b60606001805461078a906124c0565b80601f01602080910402602001604051908101604052809291908181526020018280546107b6906124c0565b80156108035780601f106107d857610100808354040283529160200191610803565b820191906000526020600020905b8154815290600101906020018083116107e657829003601f168201915b5050505050905090565b3373ffffffffffffffffffffffffffffffffffffffff1661082d84610fd7565b73ffffffffffffffffffffffffffffffffffffffff16148061088157503373ffffffffffffffffffffffffffffffffffffffff16610869610751565b73ffffffffffffffffffffffffffffffffffffffff16145b6108c0576040517f08c379a00000000000000000000000000000000000000000000000000000000081526004016108b7906127f1565b60405180910390fd5b827f8fff57e4e54973a5e2cdfddaf277760113412c111abd41bb97acb51a785b460883836040516108f2929190612811565b60405180910390a2505050565b61091161090a610b88565b8383611158565b5050565b610926610920610b88565b83610c49565b610965576040517f08c379a000000000000000000000000000000000000000000000000000000000815260040161095c90612687565b60405180910390fd5b610971848484846112c4565b50505050565b606061098282611320565b9050919050565b610991611014565b6000600860008154809291906109a690612877565b9190505590506109b68382611432565b6109c08183611450565b505050565b6000600560008473ffffffffffffffffffffffffffffffffffffffff1673ffffffffffffffffffffffffffffffffffffffff16815260200190815260200160002060008373ffffffffffffffffffffffffffffffffffffffff1673ffffffffffffffffffffffffffffffffffffffff16815260200190815260200160002060009054906101000a900460ff16905092915050565b610a61611014565b600073ffffffffffffffffffffffffffffffffffffffff168173ffffffffffffffffffffffffffffffffffffffff1603610ad0576040517f08c379a0000000000000000000000000000000000000000000000000000000008152600401610ac790612931565b60405180910390fd5b610ad981611092565b50565b6000634906490660e01b7bffffffffffffffffffffffffffffffffffffffffffffffffffffffff1916827bffffffffffffffffffffffffffffffffffffffffffffffffffffffff19161480610b365750610b35826114f4565b5b9050919050565b610b46816115d6565b610b85576040517f08c379a0000000000000000000000000000000000000000000000000000000008152600401610b7c906126f3565b60405180910390fd5b50565b600033905090565b816004600083815260200190815260200160002060006101000a81548173ffffffffffffffffffffffffffffffffffffffff021916908373ffffffffffffffffffffffffffffffffffffffff160217905550808273ffffffffffffffffffffffffffffffffffffffff16610c0383610600565b73ffffffffffffffffffffffffffffffffffffffff167f8c5be1e5ebec7d5bd14f71427d1e84f3dd0314c0f7b2291e5b200ac8c7c3b92560405160405180910390a45050565b600080610c5583610600565b90508073ffffffffffffffffffffffffffffffffffffffff168473ffffffffffffffffffffffffffffffffffffffff161480610c975750610c9681856109c5565b5b80610cd557508373ffffffffffffffffffffffffffffffffffffffff16610cbd84610423565b73ffffffffffffffffffffffffffffffffffffffff16145b91505092915050565b8273ffffffffffffffffffffffffffffffffffffffff16610cfe82610600565b73ffffffffffffffffffffffffffffffffffffffff1614610d54576040517f08c379a0000000000000000000000000000000000000000000000000000000008152600401610d4b906129c3565b60405180910390fd5b600073ffffffffffffffffffffffffffffffffffffffff168273ffffffffffffffffffffffffffffffffffffffff1603610dc3576040517f08c379a0000000000000000000000000000000000000000000000000000000008152600401610dba90612a55565b60405180910390fd5b610dd08383836001611617565b8273ffffffffffffffffffffffffffffffffffffffff16610df082610600565b73ffffffffffffffffffffffffffffffffffffffff1614610e46576040517f08c379a0000000000000000000000000000000000000000000000000000000008152600401610e3d906129c3565b60405180910390fd5b6004600082815260200190815260200160002060006101000a81549073ffffffffffffffffffffffffffffffffffffffff02191690556001600360008573ffffffffffffffffffffffffffffffffffffffff1673ffffffffffffffffffffffffffffffffffffffff168152602001908152602001600020600082825403925050819055506001600360008473ffffffffffffffffffffffffffffffffffffffff1673ffffffffffffffffffffffffffffffffffffffff16815260200190815260200160002060008282540192505081905550816002600083815260200190815260200160002060006101000a81548173ffffffffffffffffffffffffffffffffffffffff021916908373ffffffffffffffffffffffffffffffffffffffff160217905550808273ffffffffffffffffffffffffffffffffffffffff168473ffffffffffffffffffffffffffffffffffffffff167fddf252ad1be2c89b69c2b068fc378daa952ba7f163c4a11628f55a4df523b3ef60405160405180910390a4610fd2838383600161161d565b505050565b60006002600083815260200190815260200160002060009054906101000a900473ffffffffffffffffffffffffffffffffffffffff169050919050565b61101c610b88565b73ffffffffffffffffffffffffffffffffffffffff1661103a610751565b73ffffffffffffffffffffffffffffffffffffffff1614611090576040517f08c379a000000000000000000000000000000000000000000000000000000000815260040161108790612ac1565b60405180910390fd5b565b6000600760009054906101000a900473ffffffffffffffffffffffffffffffffffffffff16905081600760006101000a81548173ffffffffffffffffffffffffffffffffffffffff021916908373ffffffffffffffffffffffffffffffffffffffff1602179055508173ffffffffffffffffffffffffffffffffffffffff168173ffffffffffffffffffffffffffffffffffffffff167f8be0079c531659141344cd1fd0a4f28419497f9722a3daafe3b4186f6b6457e060405160405180910390a35050565b8173ffffffffffffffffffffffffffffffffffffffff168373ffffffffffffffffffffffffffffffffffffffff16036111c6576040517f08c379a00000000000000000000000000000000000000000000000000000000081526004016111bd90612b2d565b60405180910390fd5b80600560008573ffffffffffffffffffffffffffffffffffffffff1673ffffffffffffffffffffffffffffffffffffffff16815260200190815260200160002060008473ffffffffffffffffffffffffffffffffffffffff1673ffffffffffffffffffffffffffffffffffffffff16815260200190815260200160002060006101000a81548160ff0219169083151502179055508173ffffffffffffffffffffffffffffffffffffffff168373ffffffffffffffffffffffffffffffffffffffff167f17307eab39ab6107e8899845ad3d59bd9653f200f220920489ca2b5937696c31836040516112b79190611e03565b60405180910390a3505050565b6112cf848484610cde565b6112db84848484611623565b61131a576040517f08c379a000000000000000000000000000000000000000000000000000000000815260040161131190612bbf565b60405180910390fd5b50505050565b606061132b82610b3d565b600060066000848152602001908152602001600020805461134b906124c0565b80601f0160208091040260200160405190810160405280929190818152602001828054611377906124c0565b80156113c45780601f10611399576101008083540402835291602001916113c4565b820191906000526020600020905b8154815290600101906020018083116113a757829003601f168201915b5050505050905060006113d56117aa565b905060008151036113ea57819250505061142d565b60008251111561141f578082604051602001611407929190612c1b565b6040516020818303038152906040529250505061142d565b611428846117c1565b925050505b919050565b61144c828260405180602001604052806000815250611829565b5050565b611459826115d6565b611498576040517f08c379a000000000000000000000000000000000000000000000000000000000815260040161148f90612cb1565b60405180910390fd5b806006600084815260200190815260200160002090816114b89190612e7d565b507ff8e1a15aba9398e019f0b49df1a4fde98ee17ae345cb5f6b5e2c27f5033e8ce7826040516114e8919061208a565b60405180910390a15050565b60007f80ac58cd000000000000000000000000000000000000000000000000000000007bffffffffffffffffffffffffffffffffffffffffffffffffffffffff1916827bffffffffffffffffffffffffffffffffffffffffffffffffffffffff191614806115bf57507f5b5e139f000000000000000000000000000000000000000000000000000000007bffffffffffffffffffffffffffffffffffffffffffffffffffffffff1916827bffffffffffffffffffffffffffffffffffffffffffffffffffffffff1916145b806115cf57506115ce82611884565b5b9050919050565b60008073ffffffffffffffffffffffffffffffffffffffff166115f883610fd7565b73ffffffffffffffffffffffffffffffffffffffff1614159050919050565b50505050565b50505050565b60006116448473ffffffffffffffffffffffffffffffffffffffff166118ee565b1561179d578373ffffffffffffffffffffffffffffffffffffffff1663150b7a0261166d610b88565b8786866040518563ffffffff1660e01b815260040161168f9493929190612fa4565b6020604051808303816000875af19250505080156116cb57506040513d601f19601f820116820180604052508101906116c89190613005565b60015b61174d573d80600081146116fb576040519150601f19603f3d011682016040523d82523d6000602084013e611700565b606091505b506000815103611745576040517f08c379a000000000000000000000000000000000000000000000000000000000815260040161173c90612bbf565b60405180910390fd5b805181602001fd5b63150b7a0260e01b7bffffffffffffffffffffffffffffffffffffffffffffffffffffffff1916817bffffffffffffffffffffffffffffffffffffffffffffffffffffffff1916149150506117a2565b600190505b949350505050565b606060405180602001604052806000815250905090565b60606117cc82610b3d565b60006117d66117aa565b905060008151116117f65760405180602001604052806000815250611821565b8061180084611911565b604051602001611811929190612c1b565b6040516020818303038152906040525b915050919050565b61183383836119df565b6118406000848484611623565b61187f576040517f08c379a000000000000000000000000000000000000000000000000000000000815260040161187690612bbf565b60405180910390fd5b505050565b60007f01ffc9a7000000000000000000000000000000000000000000000000000000007bffffffffffffffffffffffffffffffffffffffffffffffffffffffff1916827bffffffffffffffffffffffffffffffffffffffffffffffffffffffff1916149050919050565b6000808273ffffffffffffffffffffffffffffffffffffffff163b119050919050565b60606000600161192084611bfc565b01905060008167ffffffffffffffff81111561193f5761193e6120af565b5b6040519080825280601f01601f1916602001820160405280156119715781602001600182028036833780820191505090505b509050600082602001820190505b6001156119d4578080600190039150507f3031323334353637383961626364656600000000000000000000000000000000600a86061a8153600a85816119c8576119c7613032565b5b0494506000850361197f575b819350505050919050565b600073ffffffffffffffffffffffffffffffffffffffff168273ffffffffffffffffffffffffffffffffffffffff1603611a4e576040517f08c379a0000000000000000000000000000000000000000000000000000000008152600401611a45906130ad565b60405180910390fd5b611a57816115d6565b15611a97576040517f08c379a0000000000000000000000000000000000000000000000000000000008152600401611a8e90613119565b60405180910390fd5b611aa5600083836001611617565b611aae816115d6565b15611aee576040517f08c379a0000000000000000000000000000000000000000000000000000000008152600401611ae590613119565b60405180910390fd5b6001600360008473ffffffffffffffffffffffffffffffffffffffff1673ffffffffffffffffffffffffffffffffffffffff16815260200190815260200160002060008282540192505081905550816002600083815260200190815260200160002060006101000a81548173ffffffffffffffffffffffffffffffffffffffff021916908373ffffffffffffffffffffffffffffffffffffffff160217905550808273ffffffffffffffffffffffffffffffffffffffff16600073ffffffffffffffffffffffffffffffffffffffff167fddf252ad1be2c89b69c2b068fc378daa952ba7f163c4a11628f55a4df523b3ef60405160405180910390a4611bf860008383600161161d565b5050565b600080600090507a184f03e93ff9f4daa797ed6e38ed64bf6a1f0100000000000000008310611c5a577a184f03e93ff9f4daa797ed6e38ed64bf6a1f0100000000000000008381611c5057611c4f613032565b5b0492506040810190505b6d04ee2d6d415b85acef81000000008310611c97576d04ee2d6d415b85acef81000000008381611c8d57611c8c613032565b5b0492506020810190505b662386f26fc100008310611cc657662386f26fc100008381611cbc57611cbb613032565b5b0492506010810190505b6305f5e1008310611cef576305f5e1008381611ce557611ce4613032565b5b0492506008810190505b6127108310611d14576127108381611d0a57611d09613032565b5b0492506004810190505b60648310611d375760648381611d2d57611d2c613032565b5b0492506002810190505b600a8310611d46576001810190505b80915050919050565b6000604051905090565b600080fd5b600080fd5b60007fffffffff0000000000000000000000000000000000000000000000000000000082169050919050565b611d9881611d63565b8114611da357600080fd5b50565b600081359050611db581611d8f565b92915050565b600060208284031215611dd157611dd0611d59565b5b6000611ddf84828501611da6565b91505092915050565b60008115159050919050565b611dfd81611de8565b82525050565b6000602082019050611e186000830184611df4565b92915050565b600081519050919050565b600082825260208201905092915050565b60005b83811015611e58578082015181840152602081019050611e3d565b60008484015250505050565b6000601f19601f8301169050919050565b6000611e8082611e1e565b611e8a8185611e29565b9350611e9a818560208601611e3a565b611ea381611e64565b840191505092915050565b60006020820190508181036000830152611ec88184611e75565b905092915050565b6000819050919050565b611ee381611ed0565b8114611eee57600080fd5b50565b600081359050611f0081611eda565b92915050565b600060208284031215611f1c57611f1b611d59565b5b6000611f2a84828501611ef1565b91505092915050565b600073ffffffffffffffffffffffffffffffffffffffff82169050919050565b6000611f5e82611f33565b9050919050565b611f6e81611f53565b82525050565b6000602082019050611f896000830184611f65565b92915050565b611f9881611f53565b8114611fa357600080fd5b50565b600081359050611fb581611f8f565b92915050565b60008060408385031215611fd257611fd1611d59565b5b6000611fe085828601611fa6565b9250506020611ff185828601611ef1565b9150509250929050565b60008060006060848603121561201457612013611d59565b5b600061202286828701611fa6565b935050602061203386828701611fa6565b925050604061204486828701611ef1565b9150509250925092565b60006020828403121561206457612063611d59565b5b600061207284828501611fa6565b91505092915050565b61208481611ed0565b82525050565b600060208201905061209f600083018461207b565b92915050565b600080fd5b600080fd5b7f4e487b7100000000000000000000000000000000000000000000000000000000600052604160045260246000fd5b6120e782611e64565b810181811067ffffffffffffffff82111715612106576121056120af565b5b80604052505050565b6000612119611d4f565b905061212582826120de565b919050565b600067ffffffffffffffff821115612145576121446120af565b5b61214e82611e64565b9050602081019050919050565b82818337600083830152505050565b600061217d6121788461212a565b61210f565b905082815260208101848484011115612199576121986120aa565b5b6121a484828561215b565b509392505050565b600082601f8301126121c1576121c06120a5565b5b81356121d184826020860161216a565b91505092915050565b6000806000606084860312156121f3576121f2611d59565b5b600061220186828701611ef1565b935050602084013567ffffffffffffffff81111561222257612221611d5e565b5b61222e868287016121ac565b925050604084013567ffffffffffffffff81111561224f5761224e611d5e565b5b61225b868287016121ac565b9150509250925092565b61226e81611de8565b811461227957600080fd5b50565b60008135905061228b81612265565b92915050565b600080604083850312156122a8576122a7611d59565b5b60006122b685828601611fa6565b92505060206122c78582860161227c565b9150509250929050565b600067ffffffffffffffff8211156122ec576122eb6120af565b5b6122f582611e64565b9050602081019050919050565b6000612315612310846122d1565b61210f565b905082815260208101848484011115612331576123306120aa565b5b61233c84828561215b565b509392505050565b600082601f830112612359576123586120a5565b5b8135612369848260208601612302565b91505092915050565b6000806000806080858703121561238c5761238b611d59565b5b600061239a87828801611fa6565b94505060206123ab87828801611fa6565b93505060406123bc87828801611ef1565b925050606085013567ffffffffffffffff8111156123dd576123dc611d5e565b5b6123e987828801612344565b91505092959194509250565b6000806040838503121561240c5761240b611d59565b5b600061241a85828601611fa6565b925050602083013567ffffffffffffffff81111561243b5761243a611d5e565b5b612447858286016121ac565b9150509250929050565b6000806040838503121561246857612467611d59565b5b600061247685828601611fa6565b925050602061248785828601611fa6565b9150509250929050565b7f4e487b7100000000000000000000000000000000000000000000000000000000600052602260045260246000fd5b600060028204905060018216806124d857607f821691505b6020821081036124eb576124ea612491565b5b50919050565b7f4552433732313a20617070726f76616c20746f2063757272656e74206f776e6560008201527f7200000000000000000000000000000000000000000000000000000000000000602082015250565b600061254d602183611e29565b9150612558826124f1565b604082019050919050565b6000602082019050818103600083015261257c81612540565b9050919050565b7f4552433732313a20617070726f76652063616c6c6572206973206e6f7420746f60008201527f6b656e206f776e6572206f7220617070726f76656420666f7220616c6c000000602082015250565b60006125df603d83611e29565b91506125ea82612583565b604082019050919050565b6000602082019050818103600083015261260e816125d2565b9050919050565b7f4552433732313a2063616c6c6572206973206e6f7420746f6b656e206f776e6560008201527f72206f7220617070726f76656400000000000000000000000000000000000000602082015250565b6000612671602d83611e29565b915061267c82612615565b604082019050919050565b600060208201905081810360008301526126a081612664565b9050919050565b7f4552433732313a20696e76616c696420746f6b656e2049440000000000000000600082015250565b60006126dd601883611e29565b91506126e8826126a7565b602082019050919050565b6000602082019050818103600083015261270c816126d0565b9050919050565b7f4552433732313a2061646472657373207a65726f206973206e6f74206120766160008201527f6c6964206f776e65720000000000000000000000000000000000000000000000602082015250565b600061276f602983611e29565b915061277a82612713565b604082019050919050565b6000602082019050818103600083015261279e81612762565b9050919050565b7f4e6f7420617574686f72697a6564000000000000000000000000000000000000600082015250565b60006127db600e83611e29565b91506127e6826127a5565b602082019050919050565b6000602082019050818103600083015261280a816127ce565b9050919050565b6000604082019050818103600083015261282b8185611e75565b9050818103602083015261283f8184611e75565b90509392505050565b7f4e487b7100000000000000000000000000000000000000000000000000000000600052601160045260246000fd5b600061288282611ed0565b91507fffffffffffffffffffffffffffffffffffffffffffffffffffffffffffffffff82036128b4576128b3612848565b5b600182019050919050565b7f4f776e61626c653a206e6577206f776e657220697320746865207a65726f206160008201527f6464726573730000000000000000000000000000000000000000000000000000602082015250565b600061291b602683611e29565b9150612926826128bf565b604082019050919050565b6000602082019050818103600083015261294a8161290e565b9050919050565b7f4552433732313a207472616e736665722066726f6d20696e636f72726563742060008201527f6f776e6572000000000000000000000000000000000000000000000000000000602082015250565b60006129ad602583611e29565b91506129b882612951565b604082019050919050565b600060208201905081810360008301526129dc816129a0565b9050919050565b7f4552433732313a207472616e7366657220746f20746865207a65726f2061646460008201527f7265737300000000000000000000000000000000000000000000000000000000602082015250565b6000612a3f602483611e29565b9150612a4a826129e3565b604082019050919050565b60006020820190508181036000830152612a6e81612a32565b9050919050565b7f4f776e61626c653a2063616c6c6572206973206e6f7420746865206f776e6572600082015250565b6000612aab602083611e29565b9150612ab682612a75565b602082019050919050565b60006020820190508181036000830152612ada81612a9e565b9050919050565b7f4552433732313a20617070726f766520746f2063616c6c657200000000000000600082015250565b6000612b17601983611e29565b9150612b2282612ae1565b602082019050919050565b60006020820190508181036000830152612b4681612b0a565b9050919050565b7f4552433732313a207472616e7366657220746f206e6f6e20455243373231526560008201527f63656976657220696d706c656d656e7465720000000000000000000000000000602082015250565b6000612ba9603283611e29565b9150612bb482612b4d565b604082019050919050565b60006020820190508181036000830152612bd881612b9c565b9050919050565b600081905092915050565b6000612bf582611e1e565b612bff8185612bdf565b9350612c0f818560208601611e3a565b80840191505092915050565b6000612c278285612bea565b9150612c338284612bea565b91508190509392505050565b7f45524337323155524953746f726167653a2055524920736574206f66206e6f6e60008201527f6578697374656e7420746f6b656e000000000000000000000000000000000000602082015250565b6000612c9b602e83611e29565b9150612ca682612c3f565b604082019050919050565b60006020820190508181036000830152612cca81612c8e565b9050919050565b60008190508160005260206000209050919050565b60006020601f8301049050919050565b600082821b905092915050565b600060088302612d337fffffffffffffffffffffffffffffffffffffffffffffffffffffffffffffffff82612cf6565b612d3d8683612cf6565b95508019841693508086168417925050509392505050565b6000819050919050565b6000612d7a612d75612d7084611ed0565b612d55565b611ed0565b9050919050565b6000819050919050565b612d9483612d5f565b612da8612da082612d81565b848454612d03565b825550505050565b600090565b612dbd612db0565b612dc8818484612d8b565b505050565b5b81811015612dec57612de1600082612db5565b600181019050612dce565b5050565b601f821115612e3157612e0281612cd1565b612e0b84612ce6565b81016020851015612e1a578190505b612e2e612e2685612ce6565b830182612dcd565b50505b505050565b600082821c905092915050565b6000612e5460001984600802612e36565b1980831691505092915050565b6000612e6d8383612e43565b9150826002028217905092915050565b612e8682611e1e565b67ffffffffffffffff811115612e9f57612e9e6120af565b5b612ea982546124c0565b612eb4828285612df0565b600060209050601f831160018114612ee75760008415612ed5578287015190505b612edf8582612e61565b865550612f47565b601f198416612ef586612cd1565b60005b82811015612f1d57848901518255600182019150602085019450602081019050612ef8565b86831015612f3a5784890151612f36601f891682612e43565b8355505b6001600288020188555050505b505050505050565b600081519050919050565b600082825260208201905092915050565b6000612f7682612f4f565b612f808185612f5a565b9350612f90818560208601611e3a565b612f9981611e64565b840191505092915050565b6000608082019050612fb96000830187611f65565b612fc66020830186611f65565b612fd3604083018561207b565b8181036060830152612fe58184612f6b565b905095945050505050565b600081519050612fff81611d8f565b92915050565b60006020828403121561301b5761301a611d59565b5b600061302984828501612ff0565b91505092915050565b7f4e487b7100000000000000000000000000000000000000000000000000000000600052601260045260246000fd5b7f4552433732313a206d696e7420746f20746865207a65726f2061646472657373600082015250565b6000613097602083611e29565b91506130a282613061565b602082019050919050565b600060208201905081810360008301526130c68161308a565b9050919050565b7f4552433732313a20746f6b656e20616c7265616479206d696e74656400000000600082015250565b6000613103601c83611e29565b915061310e826130cd565b602082019050919050565b60006020820190508181036000830152613132816130f6565b905091905056fea26469706673582212207867731dfec7d8cdfa0bee6a255431a82c88bd73580a361a2854ca04f599fa8764736f6c63430008140033",
  "linkReferences": {},
  "deployedLinkReferences": {}
}